{
  "contracts/StudentRegistry.sol": {
    "StudentRegistry": {
      "abi": [
        {
          "anonymous": false,
          "inputs": [
            {
              "indexed": true,
              "internalType": "uint256",
              "name": "studentId",
              "type": "uint256"
            },
            {
              "indexed": false,
              "internalType": "bool",
              "name": "present",
              "type": "bool"
            }
          ],
          "name": "AttendanceUpdated",
          "type": "event"
        },
        {
          "anonymous": false,
          "inputs": [
            {
              "indexed": true,
              "internalType": "uint256",
              "name": "studentId",
              "type": "uint256"
            },
            {
              "indexed": false,
              "internalType": "string",
              "name": "name",
              "type": "string"
            },
            {
              "indexed": false,
              "internalType": "uint256",
              "name": "age",
              "type": "uint256"
            }
          ],
          "name": "StudentAdded",
          "type": "event"
        },
        {
          "inputs": [
            {
              "internalType": "string",
              "name": "_name",
              "type": "string"
            },
            {
              "internalType": "uint256",
              "name": "_age",
              "type": "uint256"
            }
          ],
          "name": "addStudent",
          "outputs": [],
          "stateMutability": "nonpayable",
          "type": "function"
        },
        {
          "inputs": [
            {
              "internalType": "uint256",
              "name": "_studentId",
              "type": "uint256"
            }
          ],
          "name": "getStudent",
          "outputs": [
            {
              "internalType": "string",
              "name": "",
              "type": "string"
            },
            {
              "internalType": "uint256",
              "name": "",
              "type": "uint256"
            },
            {
              "internalType": "bool",
              "name": "",
              "type": "bool"
            }
          ],
          "stateMutability": "view",
          "type": "function"
        },
        {
          "inputs": [],
          "name": "getTotalStudents",
          "outputs": [
            {
              "internalType": "uint256",
              "name": "",
              "type": "uint256"
            }
          ],
          "stateMutability": "view",
          "type": "function"
        },
        {
          "inputs": [
            {
              "internalType": "uint256",
              "name": "",
              "type": "uint256"
            }
          ],
          "name": "students",
          "outputs": [
            {
              "internalType": "string",
              "name": "name",
              "type": "string"
            },
            {
              "internalType": "uint256",
              "name": "age",
              "type": "uint256"
            },
            {
              "internalType": "bool",
              "name": "present",
              "type": "bool"
            }
          ],
          "stateMutability": "view",
          "type": "function"
        },
        {
          "inputs": [
            {
              "internalType": "uint256",
              "name": "_studentId",
              "type": "uint256"
            },
            {
              "internalType": "bool",
              "name": "_present",
              "type": "bool"
            }
          ],
          "name": "updateAttendance",
          "outputs": [],
          "stateMutability": "nonpayable",
          "type": "function"
        }
      ],
      "evm": {
        "bytecode": {
          "linkReferences": {},
          "object": "6080604052348015600f57600080fd5b50610cbf8061001f6000396000f3fe608060405234801561001057600080fd5b50600436106100575760003560e01c806306ead22e1461005c5780630e5eeef71461008e57806328bcb51a146100aa578063642f9163146100c8578063d6f4d53a146100fa575b600080fd5b61007660048036038101906100719190610525565b610116565b6040516100859392919061060c565b60405180910390f35b6100a860048036038101906100a3919061077f565b6101e5565b005b6100b26102bf565b6040516100bf91906107db565b60405180910390f35b6100e260048036038101906100dd9190610525565b6102cb565b6040516100f19392919061060c565b60405180910390f35b610114600480360381019061010f9190610822565b61041b565b005b6000818154811061012657600080fd5b906000526020600020906003020160009150905080600001805461014990610891565b80601f016020809104026020016040519081016040528092919081815260200182805461017590610891565b80156101c25780601f10610197576101008083540402835291602001916101c2565b820191906000526020600020905b8154815290600101906020018083116101a557829003601f168201915b5050505050908060010154908060020160009054906101000a900460ff16905083565b6000604051806060016040528084815260200183815260200160001515815250908060018154018082558091505060019003906000526020600020906003020160009091909190915060008201518160000190816102439190610a6e565b506020820151816001015560408201518160020160006101000a81548160ff021916908315150217905550505060016000805490506102829190610b6f565b7ffafb7311fc57ca8a55073f63725e888b4250c799d77ae873970d65ac08c5917a83836040516102b3929190610ba3565b60405180910390a25050565b60008080549050905090565b60606000806000805490508410610317576040517f08c379a000000000000000000000000000000000000000000000000000000000815260040161030e90610c1f565b60405180910390fd5b600080858154811061032c5761032b610c3f565b5b906000526020600020906003020160405180606001604052908160008201805461035590610891565b80601f016020809104026020016040519081016040528092919081815260200182805461038190610891565b80156103ce5780601f106103a3576101008083540402835291602001916103ce565b820191906000526020600020905b8154815290600101906020018083116103b157829003601f168201915b50505050508152602001600182015481526020016002820160009054906101000a900460ff1615151515815250509050806000015181602001518260400151935093509350509193909250565b6000805490508210610462576040517f08c379a000000000000000000000000000000000000000000000000000000000815260040161045990610c1f565b60405180910390fd5b806000838154811061047757610476610c3f565b5b906000526020600020906003020160020160006101000a81548160ff021916908315150217905550817fb24c5a7d71fb23dd51bc8d1fcbf951fa449ec941f1775a487bc9139bd573099d826040516104cf9190610c6e565b60405180910390a25050565b6000604051905090565b600080fd5b600080fd5b6000819050919050565b610502816104ef565b811461050d57600080fd5b50565b60008135905061051f816104f9565b92915050565b60006020828403121561053b5761053a6104e5565b5b600061054984828501610510565b91505092915050565b600081519050919050565b600082825260208201905092915050565b60005b8381101561058c578082015181840152602081019050610571565b60008484015250505050565b6000601f19601f8301169050919050565b60006105b482610552565b6105be818561055d565b93506105ce81856020860161056e565b6105d781610598565b840191505092915050565b6105eb816104ef565b82525050565b60008115159050919050565b610606816105f1565b82525050565b6000606082019050818103600083015261062681866105a9565b905061063560208301856105e2565b61064260408301846105fd565b949350505050565b600080fd5b600080fd5b7f4e487b7100000000000000000000000000000000000000000000000000000000600052604160045260246000fd5b61068c82610598565b810181811067ffffffffffffffff821117156106ab576106aa610654565b5b80604052505050565b60006106be6104db565b90506106ca8282610683565b919050565b600067ffffffffffffffff8211156106ea576106e9610654565b5b6106f382610598565b9050602081019050919050565b82818337600083830152505050565b600061072261071d846106cf565b6106b4565b90508281526020810184848401111561073e5761073d61064f565b5b610749848285610700565b509392505050565b600082601f8301126107665761076561064a565b5b813561077684826020860161070f565b91505092915050565b60008060408385031215610796576107956104e5565b5b600083013567ffffffffffffffff8111156107b4576107b36104ea565b5b6107c085828601610751565b92505060206107d185828601610510565b9150509250929050565b60006020820190506107f060008301846105e2565b92915050565b6107ff816105f1565b811461080a57600080fd5b50565b60008135905061081c816107f6565b92915050565b60008060408385031215610839576108386104e5565b5b600061084785828601610510565b92505060206108588582860161080d565b9150509250929050565b7f4e487b7100000000000000000000000000000000000000000000000000000000600052602260045260246000fd5b600060028204905060018216806108a957607f821691505b6020821081036108bc576108bb610862565b5b50919050565b60008190508160005260206000209050919050565b60006020601f8301049050919050565b600082821b905092915050565b6000600883026109247fffffffffffffffffffffffffffffffffffffffffffffffffffffffffffffffff826108e7565b61092e86836108e7565b95508019841693508086168417925050509392505050565b6000819050919050565b600061096b610966610961846104ef565b610946565b6104ef565b9050919050565b6000819050919050565b61098583610950565b61099961099182610972565b8484546108f4565b825550505050565b600090565b6109ae6109a1565b6109b981848461097c565b505050565b5b818110156109dd576109d26000826109a6565b6001810190506109bf565b5050565b601f821115610a22576109f3816108c2565b6109fc846108d7565b81016020851015610a0b578190505b610a1f610a17856108d7565b8301826109be565b50505b505050565b600082821c905092915050565b6000610a4560001984600802610a27565b1980831691505092915050565b6000610a5e8383610a34565b9150826002028217905092915050565b610a7782610552565b67ffffffffffffffff811115610a9057610a8f610654565b5b610a9a8254610891565b610aa58282856109e1565b600060209050601f831160018114610ad85760008415610ac6578287015190505b610ad08582610a52565b865550610b38565b601f198416610ae6866108c2565b60005b82811015610b0e57848901518255600182019150602085019450602081019050610ae9565b86831015610b2b5784890151610b27601f891682610a34565b8355505b6001600288020188555050505b505050505050565b7f4e487b7100000000000000000000000000000000000000000000000000000000600052601160045260246000fd5b6000610b7a826104ef565b9150610b85836104ef565b9250828203905081811115610b9d57610b9c610b40565b5b92915050565b60006040820190508181036000830152610bbd81856105a9565b9050610bcc60208301846105e2565b9392505050565b7f53747564656e7420646f6573206e6f7420657869737400000000000000000000600082015250565b6000610c0960168361055d565b9150610c1482610bd3565b602082019050919050565b60006020820190508181036000830152610c3881610bfc565b9050919050565b7f4e487b7100000000000000000000000000000000000000000000000000000000600052603260045260246000fd5b6000602082019050610c8360008301846105fd565b9291505056fea2646970667358221220ca4f90cde961173f95ba375e9da75d57b2214a8aee436e46e2deea6b09989acd64736f6c634300081c0033",
          "opcodes": "PUSH1 0x80 PUSH1 0x40 MSTORE CALLVALUE DUP1 ISZERO PUSH1 0xF JUMPI PUSH1 0x0 DUP1 REVERT JUMPDEST POP PUSH2 0xCBF DUP1 PUSH2 0x1F PUSH1 0x0 CODECOPY PUSH1 0x0 RETURN INVALID PUSH1 0x80 PUSH1 0x40 MSTORE CALLVALUE DUP1 ISZERO PUSH2 0x10 JUMPI PUSH1 0x0 DUP1 REVERT JUMPDEST POP PUSH1 0x4 CALLDATASIZE LT PUSH2 0x57 JUMPI PUSH1 0x0 CALLDATALOAD PUSH1 0xE0 SHR DUP1 PUSH4 0x6EAD22E EQ PUSH2 0x5C JUMPI DUP1 PUSH4 0xE5EEEF7 EQ PUSH2 0x8E JUMPI DUP1 PUSH4 0x28BCB51A EQ PUSH2 0xAA JUMPI DUP1 PUSH4 0x642F9163 EQ PUSH2 0xC8 JUMPI DUP1 PUSH4 0xD6F4D53A EQ PUSH2 0xFA JUMPI JUMPDEST PUSH1 0x0 DUP1 REVERT JUMPDEST PUSH2 0x76 PUSH1 0x4 DUP1 CALLDATASIZE SUB DUP2 ADD SWAP1 PUSH2 0x71 SWAP2 SWAP1 PUSH2 0x525 JUMP JUMPDEST PUSH2 0x116 JUMP JUMPDEST PUSH1 0x40 MLOAD PUSH2 0x85 SWAP4 SWAP3 SWAP2 SWAP1 PUSH2 0x60C JUMP JUMPDEST PUSH1 0x40 MLOAD DUP1 SWAP2 SUB SWAP1 RETURN JUMPDEST PUSH2 0xA8 PUSH1 0x4 DUP1 CALLDATASIZE SUB DUP2 ADD SWAP1 PUSH2 0xA3 SWAP2 SWAP1 PUSH2 0x77F JUMP JUMPDEST PUSH2 0x1E5 JUMP JUMPDEST STOP JUMPDEST PUSH2 0xB2 PUSH2 0x2BF JUMP JUMPDEST PUSH1 0x40 MLOAD PUSH2 0xBF SWAP2 SWAP1 PUSH2 0x7DB JUMP JUMPDEST PUSH1 0x40 MLOAD DUP1 SWAP2 SUB SWAP1 RETURN JUMPDEST PUSH2 0xE2 PUSH1 0x4 DUP1 CALLDATASIZE SUB DUP2 ADD SWAP1 PUSH2 0xDD SWAP2 SWAP1 PUSH2 0x525 JUMP JUMPDEST PUSH2 0x2CB JUMP JUMPDEST PUSH1 0x40 MLOAD PUSH2 0xF1 SWAP4 SWAP3 SWAP2 SWAP1 PUSH2 0x60C JUMP JUMPDEST PUSH1 0x40 MLOAD DUP1 SWAP2 SUB SWAP1 RETURN JUMPDEST PUSH2 0x114 PUSH1 0x4 DUP1 CALLDATASIZE SUB DUP2 ADD SWAP1 PUSH2 0x10F SWAP2 SWAP1 PUSH2 0x822 JUMP JUMPDEST PUSH2 0x41B JUMP JUMPDEST STOP JUMPDEST PUSH1 0x0 DUP2 DUP2 SLOAD DUP2 LT PUSH2 0x126 JUMPI PUSH1 0x0 DUP1 REVERT JUMPDEST SWAP1 PUSH1 0x0 MSTORE PUSH1 0x20 PUSH1 0x0 KECCAK256 SWAP1 PUSH1 0x3 MUL ADD PUSH1 0x0 SWAP2 POP SWAP1 POP DUP1 PUSH1 0x0 ADD DUP1 SLOAD PUSH2 0x149 SWAP1 PUSH2 0x891 JUMP JUMPDEST DUP1 PUSH1 0x1F ADD PUSH1 0x20 DUP1 SWAP2 DIV MUL PUSH1 0x20 ADD PUSH1 0x40 MLOAD SWAP1 DUP2 ADD PUSH1 0x40 MSTORE DUP1 SWAP3 SWAP2 SWAP1 DUP2 DUP2 MSTORE PUSH1 0x20 ADD DUP3 DUP1 SLOAD PUSH2 0x175 SWAP1 PUSH2 0x891 JUMP JUMPDEST DUP1 ISZERO PUSH2 0x1C2 JUMPI DUP1 PUSH1 0x1F LT PUSH2 0x197 JUMPI PUSH2 0x100 DUP1 DUP4 SLOAD DIV MUL DUP4 MSTORE SWAP2 PUSH1 0x20 ADD SWAP2 PUSH2 0x1C2 JUMP JUMPDEST DUP3 ADD SWAP2 SWAP1 PUSH1 0x0 MSTORE PUSH1 0x20 PUSH1 0x0 KECCAK256 SWAP1 JUMPDEST DUP2 SLOAD DUP2 MSTORE SWAP1 PUSH1 0x1 ADD SWAP1 PUSH1 0x20 ADD DUP1 DUP4 GT PUSH2 0x1A5 JUMPI DUP3 SWAP1 SUB PUSH1 0x1F AND DUP3 ADD SWAP2 JUMPDEST POP POP POP POP POP SWAP1 DUP1 PUSH1 0x1 ADD SLOAD SWAP1 DUP1 PUSH1 0x2 ADD PUSH1 0x0 SWAP1 SLOAD SWAP1 PUSH2 0x100 EXP SWAP1 DIV PUSH1 0xFF AND SWAP1 POP DUP4 JUMP JUMPDEST PUSH1 0x0 PUSH1 0x40 MLOAD DUP1 PUSH1 0x60 ADD PUSH1 0x40 MSTORE DUP1 DUP5 DUP2 MSTORE PUSH1 0x20 ADD DUP4 DUP2 MSTORE PUSH1 0x20 ADD PUSH1 0x0 ISZERO ISZERO DUP2 MSTORE POP SWAP1 DUP1 PUSH1 0x1 DUP2 SLOAD ADD DUP1 DUP3 SSTORE DUP1 SWAP2 POP POP PUSH1 0x1 SWAP1 SUB SWAP1 PUSH1 0x0 MSTORE PUSH1 0x20 PUSH1 0x0 KECCAK256 SWAP1 PUSH1 0x3 MUL ADD PUSH1 0x0 SWAP1 SWAP2 SWAP1 SWAP2 SWAP1 SWAP2 POP PUSH1 0x0 DUP3 ADD MLOAD DUP2 PUSH1 0x0 ADD SWAP1 DUP2 PUSH2 0x243 SWAP2 SWAP1 PUSH2 0xA6E JUMP JUMPDEST POP PUSH1 0x20 DUP3 ADD MLOAD DUP2 PUSH1 0x1 ADD SSTORE PUSH1 0x40 DUP3 ADD MLOAD DUP2 PUSH1 0x2 ADD PUSH1 0x0 PUSH2 0x100 EXP DUP2 SLOAD DUP2 PUSH1 0xFF MUL NOT AND SWAP1 DUP4 ISZERO ISZERO MUL OR SWAP1 SSTORE POP POP POP PUSH1 0x1 PUSH1 0x0 DUP1 SLOAD SWAP1 POP PUSH2 0x282 SWAP2 SWAP1 PUSH2 0xB6F JUMP JUMPDEST PUSH32 0xFAFB7311FC57CA8A55073F63725E888B4250C799D77AE873970D65AC08C5917A DUP4 DUP4 PUSH1 0x40 MLOAD PUSH2 0x2B3 SWAP3 SWAP2 SWAP1 PUSH2 0xBA3 JUMP JUMPDEST PUSH1 0x40 MLOAD DUP1 SWAP2 SUB SWAP1 LOG2 POP POP JUMP JUMPDEST PUSH1 0x0 DUP1 DUP1 SLOAD SWAP1 POP SWAP1 POP SWAP1 JUMP JUMPDEST PUSH1 0x60 PUSH1 0x0 DUP1 PUSH1 0x0 DUP1 SLOAD SWAP1 POP DUP5 LT PUSH2 0x317 JUMPI PUSH1 0x40 MLOAD PUSH32 0x8C379A000000000000000000000000000000000000000000000000000000000 DUP2 MSTORE PUSH1 0x4 ADD PUSH2 0x30E SWAP1 PUSH2 0xC1F JUMP JUMPDEST PUSH1 0x40 MLOAD DUP1 SWAP2 SUB SWAP1 REVERT JUMPDEST PUSH1 0x0 DUP1 DUP6 DUP2 SLOAD DUP2 LT PUSH2 0x32C JUMPI PUSH2 0x32B PUSH2 0xC3F JUMP JUMPDEST JUMPDEST SWAP1 PUSH1 0x0 MSTORE PUSH1 0x20 PUSH1 0x0 KECCAK256 SWAP1 PUSH1 0x3 MUL ADD PUSH1 0x40 MLOAD DUP1 PUSH1 0x60 ADD PUSH1 0x40 MSTORE SWAP1 DUP2 PUSH1 0x0 DUP3 ADD DUP1 SLOAD PUSH2 0x355 SWAP1 PUSH2 0x891 JUMP JUMPDEST DUP1 PUSH1 0x1F ADD PUSH1 0x20 DUP1 SWAP2 DIV MUL PUSH1 0x20 ADD PUSH1 0x40 MLOAD SWAP1 DUP2 ADD PUSH1 0x40 MSTORE DUP1 SWAP3 SWAP2 SWAP1 DUP2 DUP2 MSTORE PUSH1 0x20 ADD DUP3 DUP1 SLOAD PUSH2 0x381 SWAP1 PUSH2 0x891 JUMP JUMPDEST DUP1 ISZERO PUSH2 0x3CE JUMPI DUP1 PUSH1 0x1F LT PUSH2 0x3A3 JUMPI PUSH2 0x100 DUP1 DUP4 SLOAD DIV MUL DUP4 MSTORE SWAP2 PUSH1 0x20 ADD SWAP2 PUSH2 0x3CE JUMP JUMPDEST DUP3 ADD SWAP2 SWAP1 PUSH1 0x0 MSTORE PUSH1 0x20 PUSH1 0x0 KECCAK256 SWAP1 JUMPDEST DUP2 SLOAD DUP2 MSTORE SWAP1 PUSH1 0x1 ADD SWAP1 PUSH1 0x20 ADD DUP1 DUP4 GT PUSH2 0x3B1 JUMPI DUP3 SWAP1 SUB PUSH1 0x1F AND DUP3 ADD SWAP2 JUMPDEST POP POP POP POP POP DUP2 MSTORE PUSH1 0x20 ADD PUSH1 0x1 DUP3 ADD SLOAD DUP2 MSTORE PUSH1 0x20 ADD PUSH1 0x2 DUP3 ADD PUSH1 0x0 SWAP1 SLOAD SWAP1 PUSH2 0x100 EXP SWAP1 DIV PUSH1 0xFF AND ISZERO ISZERO ISZERO ISZERO DUP2 MSTORE POP POP SWAP1 POP DUP1 PUSH1 0x0 ADD MLOAD DUP2 PUSH1 0x20 ADD MLOAD DUP3 PUSH1 0x40 ADD MLOAD SWAP4 POP SWAP4 POP SWAP4 POP POP SWAP2 SWAP4 SWAP1 SWAP3 POP JUMP JUMPDEST PUSH1 0x0 DUP1 SLOAD SWAP1 POP DUP3 LT PUSH2 0x462 JUMPI PUSH1 0x40 MLOAD PUSH32 0x8C379A000000000000000000000000000000000000000000000000000000000 DUP2 MSTORE PUSH1 0x4 ADD PUSH2 0x459 SWAP1 PUSH2 0xC1F JUMP JUMPDEST PUSH1 0x40 MLOAD DUP1 SWAP2 SUB SWAP1 REVERT JUMPDEST DUP1 PUSH1 0x0 DUP4 DUP2 SLOAD DUP2 LT PUSH2 0x477 JUMPI PUSH2 0x476 PUSH2 0xC3F JUMP JUMPDEST JUMPDEST SWAP1 PUSH1 0x0 MSTORE PUSH1 0x20 PUSH1 0x0 KECCAK256 SWAP1 PUSH1 0x3 MUL ADD PUSH1 0x2 ADD PUSH1 0x0 PUSH2 0x100 EXP DUP2 SLOAD DUP2 PUSH1 0xFF MUL NOT AND SWAP1 DUP4 ISZERO ISZERO MUL OR SWAP1 SSTORE POP DUP2 PUSH32 0xB24C5A7D71FB23DD51BC8D1FCBF951FA449EC941F1775A487BC9139BD573099D DUP3 PUSH1 0x40 MLOAD PUSH2 0x4CF SWAP2 SWAP1 PUSH2 0xC6E JUMP JUMPDEST PUSH1 0x40 MLOAD DUP1 SWAP2 SUB SWAP1 LOG2 POP POP JUMP JUMPDEST PUSH1 0x0 PUSH1 0x40 MLOAD SWAP1 POP SWAP1 JUMP JUMPDEST PUSH1 0x0 DUP1 REVERT JUMPDEST PUSH1 0x0 DUP1 REVERT JUMPDEST PUSH1 0x0 DUP2 SWAP1 POP SWAP2 SWAP1 POP JUMP JUMPDEST PUSH2 0x502 DUP2 PUSH2 0x4EF JUMP JUMPDEST DUP2 EQ PUSH2 0x50D JUMPI PUSH1 0x0 DUP1 REVERT JUMPDEST POP JUMP JUMPDEST PUSH1 0x0 DUP2 CALLDATALOAD SWAP1 POP PUSH2 0x51F DUP2 PUSH2 0x4F9 JUMP JUMPDEST SWAP3 SWAP2 POP POP JUMP JUMPDEST PUSH1 0x0 PUSH1 0x20 DUP3 DUP5 SUB SLT ISZERO PUSH2 0x53B JUMPI PUSH2 0x53A PUSH2 0x4E5 JUMP JUMPDEST JUMPDEST PUSH1 0x0 PUSH2 0x549 DUP5 DUP3 DUP6 ADD PUSH2 0x510 JUMP JUMPDEST SWAP2 POP POP SWAP3 SWAP2 POP POP JUMP JUMPDEST PUSH1 0x0 DUP2 MLOAD SWAP1 POP SWAP2 SWAP1 POP JUMP JUMPDEST PUSH1 0x0 DUP3 DUP3 MSTORE PUSH1 0x20 DUP3 ADD SWAP1 POP SWAP3 SWAP2 POP POP JUMP JUMPDEST PUSH1 0x0 JUMPDEST DUP4 DUP2 LT ISZERO PUSH2 0x58C JUMPI DUP1 DUP3 ADD MLOAD DUP2 DUP5 ADD MSTORE PUSH1 0x20 DUP2 ADD SWAP1 POP PUSH2 0x571 JUMP JUMPDEST PUSH1 0x0 DUP5 DUP5 ADD MSTORE POP POP POP POP JUMP JUMPDEST PUSH1 0x0 PUSH1 0x1F NOT PUSH1 0x1F DUP4 ADD AND SWAP1 POP SWAP2 SWAP1 POP JUMP JUMPDEST PUSH1 0x0 PUSH2 0x5B4 DUP3 PUSH2 0x552 JUMP JUMPDEST PUSH2 0x5BE DUP2 DUP6 PUSH2 0x55D JUMP JUMPDEST SWAP4 POP PUSH2 0x5CE DUP2 DUP6 PUSH1 0x20 DUP7 ADD PUSH2 0x56E JUMP JUMPDEST PUSH2 0x5D7 DUP2 PUSH2 0x598 JUMP JUMPDEST DUP5 ADD SWAP2 POP POP SWAP3 SWAP2 POP POP JUMP JUMPDEST PUSH2 0x5EB DUP2 PUSH2 0x4EF JUMP JUMPDEST DUP3 MSTORE POP POP JUMP JUMPDEST PUSH1 0x0 DUP2 ISZERO ISZERO SWAP1 POP SWAP2 SWAP1 POP JUMP JUMPDEST PUSH2 0x606 DUP2 PUSH2 0x5F1 JUMP JUMPDEST DUP3 MSTORE POP POP JUMP JUMPDEST PUSH1 0x0 PUSH1 0x60 DUP3 ADD SWAP1 POP DUP2 DUP2 SUB PUSH1 0x0 DUP4 ADD MSTORE PUSH2 0x626 DUP2 DUP7 PUSH2 0x5A9 JUMP JUMPDEST SWAP1 POP PUSH2 0x635 PUSH1 0x20 DUP4 ADD DUP6 PUSH2 0x5E2 JUMP JUMPDEST PUSH2 0x642 PUSH1 0x40 DUP4 ADD DUP5 PUSH2 0x5FD JUMP JUMPDEST SWAP5 SWAP4 POP POP POP POP JUMP JUMPDEST PUSH1 0x0 DUP1 REVERT JUMPDEST PUSH1 0x0 DUP1 REVERT JUMPDEST PUSH32 0x4E487B7100000000000000000000000000000000000000000000000000000000 PUSH1 0x0 MSTORE PUSH1 0x41 PUSH1 0x4 MSTORE PUSH1 0x24 PUSH1 0x0 REVERT JUMPDEST PUSH2 0x68C DUP3 PUSH2 0x598 JUMP JUMPDEST DUP2 ADD DUP2 DUP2 LT PUSH8 0xFFFFFFFFFFFFFFFF DUP3 GT OR ISZERO PUSH2 0x6AB JUMPI PUSH2 0x6AA PUSH2 0x654 JUMP JUMPDEST JUMPDEST DUP1 PUSH1 0x40 MSTORE POP POP POP JUMP JUMPDEST PUSH1 0x0 PUSH2 0x6BE PUSH2 0x4DB JUMP JUMPDEST SWAP1 POP PUSH2 0x6CA DUP3 DUP3 PUSH2 0x683 JUMP JUMPDEST SWAP2 SWAP1 POP JUMP JUMPDEST PUSH1 0x0 PUSH8 0xFFFFFFFFFFFFFFFF DUP3 GT ISZERO PUSH2 0x6EA JUMPI PUSH2 0x6E9 PUSH2 0x654 JUMP JUMPDEST JUMPDEST PUSH2 0x6F3 DUP3 PUSH2 0x598 JUMP JUMPDEST SWAP1 POP PUSH1 0x20 DUP2 ADD SWAP1 POP SWAP2 SWAP1 POP JUMP JUMPDEST DUP3 DUP2 DUP4 CALLDATACOPY PUSH1 0x0 DUP4 DUP4 ADD MSTORE POP POP POP JUMP JUMPDEST PUSH1 0x0 PUSH2 0x722 PUSH2 0x71D DUP5 PUSH2 0x6CF JUMP JUMPDEST PUSH2 0x6B4 JUMP JUMPDEST SWAP1 POP DUP3 DUP2 MSTORE PUSH1 0x20 DUP2 ADD DUP5 DUP5 DUP5 ADD GT ISZERO PUSH2 0x73E JUMPI PUSH2 0x73D PUSH2 0x64F JUMP JUMPDEST JUMPDEST PUSH2 0x749 DUP5 DUP3 DUP6 PUSH2 0x700 JUMP JUMPDEST POP SWAP4 SWAP3 POP POP POP JUMP JUMPDEST PUSH1 0x0 DUP3 PUSH1 0x1F DUP4 ADD SLT PUSH2 0x766 JUMPI PUSH2 0x765 PUSH2 0x64A JUMP JUMPDEST JUMPDEST DUP2 CALLDATALOAD PUSH2 0x776 DUP5 DUP3 PUSH1 0x20 DUP7 ADD PUSH2 0x70F JUMP JUMPDEST SWAP2 POP POP SWAP3 SWAP2 POP POP JUMP JUMPDEST PUSH1 0x0 DUP1 PUSH1 0x40 DUP4 DUP6 SUB SLT ISZERO PUSH2 0x796 JUMPI PUSH2 0x795 PUSH2 0x4E5 JUMP JUMPDEST JUMPDEST PUSH1 0x0 DUP4 ADD CALLDATALOAD PUSH8 0xFFFFFFFFFFFFFFFF DUP2 GT ISZERO PUSH2 0x7B4 JUMPI PUSH2 0x7B3 PUSH2 0x4EA JUMP JUMPDEST JUMPDEST PUSH2 0x7C0 DUP6 DUP3 DUP7 ADD PUSH2 0x751 JUMP JUMPDEST SWAP3 POP POP PUSH1 0x20 PUSH2 0x7D1 DUP6 DUP3 DUP7 ADD PUSH2 0x510 JUMP JUMPDEST SWAP2 POP POP SWAP3 POP SWAP3 SWAP1 POP JUMP JUMPDEST PUSH1 0x0 PUSH1 0x20 DUP3 ADD SWAP1 POP PUSH2 0x7F0 PUSH1 0x0 DUP4 ADD DUP5 PUSH2 0x5E2 JUMP JUMPDEST SWAP3 SWAP2 POP POP JUMP JUMPDEST PUSH2 0x7FF DUP2 PUSH2 0x5F1 JUMP JUMPDEST DUP2 EQ PUSH2 0x80A JUMPI PUSH1 0x0 DUP1 REVERT JUMPDEST POP JUMP JUMPDEST PUSH1 0x0 DUP2 CALLDATALOAD SWAP1 POP PUSH2 0x81C DUP2 PUSH2 0x7F6 JUMP JUMPDEST SWAP3 SWAP2 POP POP JUMP JUMPDEST PUSH1 0x0 DUP1 PUSH1 0x40 DUP4 DUP6 SUB SLT ISZERO PUSH2 0x839 JUMPI PUSH2 0x838 PUSH2 0x4E5 JUMP JUMPDEST JUMPDEST PUSH1 0x0 PUSH2 0x847 DUP6 DUP3 DUP7 ADD PUSH2 0x510 JUMP JUMPDEST SWAP3 POP POP PUSH1 0x20 PUSH2 0x858 DUP6 DUP3 DUP7 ADD PUSH2 0x80D JUMP JUMPDEST SWAP2 POP POP SWAP3 POP SWAP3 SWAP1 POP JUMP JUMPDEST PUSH32 0x4E487B7100000000000000000000000000000000000000000000000000000000 PUSH1 0x0 MSTORE PUSH1 0x22 PUSH1 0x4 MSTORE PUSH1 0x24 PUSH1 0x0 REVERT JUMPDEST PUSH1 0x0 PUSH1 0x2 DUP3 DIV SWAP1 POP PUSH1 0x1 DUP3 AND DUP1 PUSH2 0x8A9 JUMPI PUSH1 0x7F DUP3 AND SWAP2 POP JUMPDEST PUSH1 0x20 DUP3 LT DUP2 SUB PUSH2 0x8BC JUMPI PUSH2 0x8BB PUSH2 0x862 JUMP JUMPDEST JUMPDEST POP SWAP2 SWAP1 POP JUMP JUMPDEST PUSH1 0x0 DUP2 SWAP1 POP DUP2 PUSH1 0x0 MSTORE PUSH1 0x20 PUSH1 0x0 KECCAK256 SWAP1 POP SWAP2 SWAP1 POP JUMP JUMPDEST PUSH1 0x0 PUSH1 0x20 PUSH1 0x1F DUP4 ADD DIV SWAP1 POP SWAP2 SWAP1 POP JUMP JUMPDEST PUSH1 0x0 DUP3 DUP3 SHL SWAP1 POP SWAP3 SWAP2 POP POP JUMP JUMPDEST PUSH1 0x0 PUSH1 0x8 DUP4 MUL PUSH2 0x924 PUSH32 0xFFFFFFFFFFFFFFFFFFFFFFFFFFFFFFFFFFFFFFFFFFFFFFFFFFFFFFFFFFFFFFFF DUP3 PUSH2 0x8E7 JUMP JUMPDEST PUSH2 0x92E DUP7 DUP4 PUSH2 0x8E7 JUMP JUMPDEST SWAP6 POP DUP1 NOT DUP5 AND SWAP4 POP DUP1 DUP7 AND DUP5 OR SWAP3 POP POP POP SWAP4 SWAP3 POP POP POP JUMP JUMPDEST PUSH1 0x0 DUP2 SWAP1 POP SWAP2 SWAP1 POP JUMP JUMPDEST PUSH1 0x0 PUSH2 0x96B PUSH2 0x966 PUSH2 0x961 DUP5 PUSH2 0x4EF JUMP JUMPDEST PUSH2 0x946 JUMP JUMPDEST PUSH2 0x4EF JUMP JUMPDEST SWAP1 POP SWAP2 SWAP1 POP JUMP JUMPDEST PUSH1 0x0 DUP2 SWAP1 POP SWAP2 SWAP1 POP JUMP JUMPDEST PUSH2 0x985 DUP4 PUSH2 0x950 JUMP JUMPDEST PUSH2 0x999 PUSH2 0x991 DUP3 PUSH2 0x972 JUMP JUMPDEST DUP5 DUP5 SLOAD PUSH2 0x8F4 JUMP JUMPDEST DUP3 SSTORE POP POP POP POP JUMP JUMPDEST PUSH1 0x0 SWAP1 JUMP JUMPDEST PUSH2 0x9AE PUSH2 0x9A1 JUMP JUMPDEST PUSH2 0x9B9 DUP2 DUP5 DUP5 PUSH2 0x97C JUMP JUMPDEST POP POP POP JUMP JUMPDEST JUMPDEST DUP2 DUP2 LT ISZERO PUSH2 0x9DD JUMPI PUSH2 0x9D2 PUSH1 0x0 DUP3 PUSH2 0x9A6 JUMP JUMPDEST PUSH1 0x1 DUP2 ADD SWAP1 POP PUSH2 0x9BF JUMP JUMPDEST POP POP JUMP JUMPDEST PUSH1 0x1F DUP3 GT ISZERO PUSH2 0xA22 JUMPI PUSH2 0x9F3 DUP2 PUSH2 0x8C2 JUMP JUMPDEST PUSH2 0x9FC DUP5 PUSH2 0x8D7 JUMP JUMPDEST DUP2 ADD PUSH1 0x20 DUP6 LT ISZERO PUSH2 0xA0B JUMPI DUP2 SWAP1 POP JUMPDEST PUSH2 0xA1F PUSH2 0xA17 DUP6 PUSH2 0x8D7 JUMP JUMPDEST DUP4 ADD DUP3 PUSH2 0x9BE JUMP JUMPDEST POP POP JUMPDEST POP POP POP JUMP JUMPDEST PUSH1 0x0 DUP3 DUP3 SHR SWAP1 POP SWAP3 SWAP2 POP POP JUMP JUMPDEST PUSH1 0x0 PUSH2 0xA45 PUSH1 0x0 NOT DUP5 PUSH1 0x8 MUL PUSH2 0xA27 JUMP JUMPDEST NOT DUP1 DUP4 AND SWAP2 POP POP SWAP3 SWAP2 POP POP JUMP JUMPDEST PUSH1 0x0 PUSH2 0xA5E DUP4 DUP4 PUSH2 0xA34 JUMP JUMPDEST SWAP2 POP DUP3 PUSH1 0x2 MUL DUP3 OR SWAP1 POP SWAP3 SWAP2 POP POP JUMP JUMPDEST PUSH2 0xA77 DUP3 PUSH2 0x552 JUMP JUMPDEST PUSH8 0xFFFFFFFFFFFFFFFF DUP2 GT ISZERO PUSH2 0xA90 JUMPI PUSH2 0xA8F PUSH2 0x654 JUMP JUMPDEST JUMPDEST PUSH2 0xA9A DUP3 SLOAD PUSH2 0x891 JUMP JUMPDEST PUSH2 0xAA5 DUP3 DUP3 DUP6 PUSH2 0x9E1 JUMP JUMPDEST PUSH1 0x0 PUSH1 0x20 SWAP1 POP PUSH1 0x1F DUP4 GT PUSH1 0x1 DUP2 EQ PUSH2 0xAD8 JUMPI PUSH1 0x0 DUP5 ISZERO PUSH2 0xAC6 JUMPI DUP3 DUP8 ADD MLOAD SWAP1 POP JUMPDEST PUSH2 0xAD0 DUP6 DUP3 PUSH2 0xA52 JUMP JUMPDEST DUP7 SSTORE POP PUSH2 0xB38 JUMP JUMPDEST PUSH1 0x1F NOT DUP5 AND PUSH2 0xAE6 DUP7 PUSH2 0x8C2 JUMP JUMPDEST PUSH1 0x0 JUMPDEST DUP3 DUP2 LT ISZERO PUSH2 0xB0E JUMPI DUP5 DUP10 ADD MLOAD DUP3 SSTORE PUSH1 0x1 DUP3 ADD SWAP2 POP PUSH1 0x20 DUP6 ADD SWAP5 POP PUSH1 0x20 DUP2 ADD SWAP1 POP PUSH2 0xAE9 JUMP JUMPDEST DUP7 DUP4 LT ISZERO PUSH2 0xB2B JUMPI DUP5 DUP10 ADD MLOAD PUSH2 0xB27 PUSH1 0x1F DUP10 AND DUP3 PUSH2 0xA34 JUMP JUMPDEST DUP4 SSTORE POP JUMPDEST PUSH1 0x1 PUSH1 0x2 DUP9 MUL ADD DUP9 SSTORE POP POP POP JUMPDEST POP POP POP POP POP POP JUMP JUMPDEST PUSH32 0x4E487B7100000000000000000000000000000000000000000000000000000000 PUSH1 0x0 MSTORE PUSH1 0x11 PUSH1 0x4 MSTORE PUSH1 0x24 PUSH1 0x0 REVERT JUMPDEST PUSH1 0x0 PUSH2 0xB7A DUP3 PUSH2 0x4EF JUMP JUMPDEST SWAP2 POP PUSH2 0xB85 DUP4 PUSH2 0x4EF JUMP JUMPDEST SWAP3 POP DUP3 DUP3 SUB SWAP1 POP DUP2 DUP2 GT ISZERO PUSH2 0xB9D JUMPI PUSH2 0xB9C PUSH2 0xB40 JUMP JUMPDEST JUMPDEST SWAP3 SWAP2 POP POP JUMP JUMPDEST PUSH1 0x0 PUSH1 0x40 DUP3 ADD SWAP1 POP DUP2 DUP2 SUB PUSH1 0x0 DUP4 ADD MSTORE PUSH2 0xBBD DUP2 DUP6 PUSH2 0x5A9 JUMP JUMPDEST SWAP1 POP PUSH2 0xBCC PUSH1 0x20 DUP4 ADD DUP5 PUSH2 0x5E2 JUMP JUMPDEST SWAP4 SWAP3 POP POP POP JUMP JUMPDEST PUSH32 0x53747564656E7420646F6573206E6F7420657869737400000000000000000000 PUSH1 0x0 DUP3 ADD MSTORE POP JUMP JUMPDEST PUSH1 0x0 PUSH2 0xC09 PUSH1 0x16 DUP4 PUSH2 0x55D JUMP JUMPDEST SWAP2 POP PUSH2 0xC14 DUP3 PUSH2 0xBD3 JUMP JUMPDEST PUSH1 0x20 DUP3 ADD SWAP1 POP SWAP2 SWAP1 POP JUMP JUMPDEST PUSH1 0x0 PUSH1 0x20 DUP3 ADD SWAP1 POP DUP2 DUP2 SUB PUSH1 0x0 DUP4 ADD MSTORE PUSH2 0xC38 DUP2 PUSH2 0xBFC JUMP JUMPDEST SWAP1 POP SWAP2 SWAP1 POP JUMP JUMPDEST PUSH32 0x4E487B7100000000000000000000000000000000000000000000000000000000 PUSH1 0x0 MSTORE PUSH1 0x32 PUSH1 0x4 MSTORE PUSH1 0x24 PUSH1 0x0 REVERT JUMPDEST PUSH1 0x0 PUSH1 0x20 DUP3 ADD SWAP1 POP PUSH2 0xC83 PUSH1 0x0 DUP4 ADD DUP5 PUSH2 0x5FD JUMP JUMPDEST SWAP3 SWAP2 POP POP JUMP INVALID LOG2 PUSH5 0x6970667358 0x22 SLT KECCAK256 0xCA 0x4F SWAP1 0xCD 0xE9 PUSH2 0x173F SWAP6 0xBA CALLDATACOPY MCOPY SWAP14 0xA7 TSTORE JUMPI 0xB2 0x21 BLOBBASEFEE DUP11 0xEE NUMBER PUSH15 0x46E2DEEA6B09989ACD64736F6C6343 STOP ADDMOD SHR STOP CALLER "
        },
        "methodIdentifiers": {
          "addStudent(string,uint256)": "0e5eeef7",
          "getStudent(uint256)": "642f9163",
          "getTotalStudents()": "28bcb51a",
          "students(uint256)": "06ead22e",
          "updateAttendance(uint256,bool)": "d6f4d53a"
        }
      }
    }
  }
}