{
  "_format": "hh-sol-artifact-1",
  "contractName": "StudentRegistry",
  "sourceName": "contracts/StudentRegistry.sol",
  "abi": [
    {
      "anonymous": false,
      "inputs": [
        {
          "indexed": true,
          "internalType": "uint256",
          "name": "studentId",
          "type": "uint256"
        },
        {
          "indexed": false,
          "internalType": "bool",
          "name": "present",
          "type": "bool"
        }
      ],
      "name": "AttendanceUpdated",
      "type": "event"
    },
    {
      "anonymous": false,
      "inputs": [
        {
          "indexed": true,
          "internalType": "uint256",
          "name": "studentId",
          "type": "uint256"
        },
        {
          "indexed": false,
          "internalType": "string",
          "name": "name",
          "type": "string"
        },
        {
          "indexed": false,
          "internalType": "uint256",
          "name": "age",
          "type": "uint256"
        }
      ],
      "name": "StudentAdded",
      "type": "event"
    },
    {
      "inputs": [
        {
          "internalType": "string",
          "name": "_name",
          "type": "string"
        },
        {
          "internalType": "uint256",
          "name": "_age",
          "type": "uint256"
        }
      ],
      "name": "addStudent",
      "outputs": [],
      "stateMutability": "nonpayable",
      "type": "function"
    },
    {
      "inputs": [
        {
          "internalType": "uint256",
          "name": "_studentId",
          "type": "uint256"
        }
      ],
      "name": "getStudent",
      "outputs": [
        {
          "internalType": "string",
          "name": "",
          "type": "string"
        },
        {
          "internalType": "uint256",
          "name": "",
          "type": "uint256"
        },
        {
          "internalType": "bool",
          "name": "",
          "type": "bool"
        }
      ],
      "stateMutability": "view",
      "type": "function"
    },
    {
      "inputs": [],
      "name": "getTotalStudents",
      "outputs": [
        {
          "internalType": "uint256",
          "name": "",
          "type": "uint256"
        }
      ],
      "stateMutability": "view",
      "type": "function"
    },
    {
      "inputs": [
        {
          "internalType": "uint256",
          "name": "",
          "type": "uint256"
        }
      ],
      "name": "students",
      "outputs": [
        {
          "internalType": "string",
          "name": "name",
          "type": "string"
        },
        {
          "internalType": "uint256",
          "name": "age",
          "type": "uint256"
        },
        {
          "internalType": "bool",
          "name": "present",
          "type": "bool"
        }
      ],
      "stateMutability": "view",
      "type": "function"
    },
    {
      "inputs": [
        {
          "internalType": "uint256",
          "name": "_studentId",
          "type": "uint256"
        },
        {
          "internalType": "bool",
          "name": "_present",
          "type": "bool"
        }
      ],
      "name": "updateAttendance",
      "outputs": [],
      "stateMutability": "nonpayable",
      "type": "function"
    }
  ],
  "bytecode": "0x6080604052348015600f57600080fd5b50610cbf8061001f6000396000f3fe608060405234801561001057600080fd5b50600436106100575760003560e01c806306ead22e1461005c5780630e5eeef71461008e57806328bcb51a146100aa578063642f9163146100c8578063d6f4d53a146100fa575b600080fd5b61007660048036038101906100719190610525565b610116565b6040516100859392919061060c565b60405180910390f35b6100a860048036038101906100a3919061077f565b6101e5565b005b6100b26102bf565b6040516100bf91906107db565b60405180910390f35b6100e260048036038101906100dd9190610525565b6102cb565b6040516100f19392919061060c565b60405180910390f35b610114600480360381019061010f9190610822565b61041b565b005b6000818154811061012657600080fd5b906000526020600020906003020160009150905080600001805461014990610891565b80601f016020809104026020016040519081016040528092919081815260200182805461017590610891565b80156101c25780601f10610197576101008083540402835291602001916101c2565b820191906000526020600020905b8154815290600101906020018083116101a557829003601f168201915b5050505050908060010154908060020160009054906101000a900460ff16905083565b6000604051806060016040528084815260200183815260200160001515815250908060018154018082558091505060019003906000526020600020906003020160009091909190915060008201518160000190816102439190610a6e565b506020820151816001015560408201518160020160006101000a81548160ff021916908315150217905550505060016000805490506102829190610b6f565b7ffafb7311fc57ca8a55073f63725e888b4250c799d77ae873970d65ac08c5917a83836040516102b3929190610ba3565b60405180910390a25050565b60008080549050905090565b60606000806000805490508410610317576040517f08c379a000000000000000000000000000000000000000000000000000000000815260040161030e90610c1f565b60405180910390fd5b600080858154811061032c5761032b610c3f565b5b906000526020600020906003020160405180606001604052908160008201805461035590610891565b80601f016020809104026020016040519081016040528092919081815260200182805461038190610891565b80156103ce5780601f106103a3576101008083540402835291602001916103ce565b820191906000526020600020905b8154815290600101906020018083116103b157829003601f168201915b50505050508152602001600182015481526020016002820160009054906101000a900460ff1615151515815250509050806000015181602001518260400151935093509350509193909250565b6000805490508210610462576040517f08c379a000000000000000000000000000000000000000000000000000000000815260040161045990610c1f565b60405180910390fd5b806000838154811061047757610476610c3f565b5b906000526020600020906003020160020160006101000a81548160ff021916908315150217905550817fb24c5a7d71fb23dd51bc8d1fcbf951fa449ec941f1775a487bc9139bd573099d826040516104cf9190610c6e565b60405180910390a25050565b6000604051905090565b600080fd5b600080fd5b6000819050919050565b610502816104ef565b811461050d57600080fd5b50565b60008135905061051f816104f9565b92915050565b60006020828403121561053b5761053a6104e5565b5b600061054984828501610510565b91505092915050565b600081519050919050565b600082825260208201905092915050565b60005b8381101561058c578082015181840152602081019050610571565b60008484015250505050565b6000601f19601f8301169050919050565b60006105b482610552565b6105be818561055d565b93506105ce81856020860161056e565b6105d781610598565b840191505092915050565b6105eb816104ef565b82525050565b60008115159050919050565b610606816105f1565b82525050565b6000606082019050818103600083015261062681866105a9565b905061063560208301856105e2565b61064260408301846105fd565b949350505050565b600080fd5b600080fd5b7f4e487b7100000000000000000000000000000000000000000000000000000000600052604160045260246000fd5b61068c82610598565b810181811067ffffffffffffffff821117156106ab576106aa610654565b5b80604052505050565b60006106be6104db565b90506106ca8282610683565b919050565b600067ffffffffffffffff8211156106ea576106e9610654565b5b6106f382610598565b9050602081019050919050565b82818337600083830152505050565b600061072261071d846106cf565b6106b4565b90508281526020810184848401111561073e5761073d61064f565b5b610749848285610700565b509392505050565b600082601f8301126107665761076561064a565b5b813561077684826020860161070f565b91505092915050565b60008060408385031215610796576107956104e5565b5b600083013567ffffffffffffffff8111156107b4576107b36104ea565b5b6107c085828601610751565b92505060206107d185828601610510565b9150509250929050565b60006020820190506107f060008301846105e2565b92915050565b6107ff816105f1565b811461080a57600080fd5b50565b60008135905061081c816107f6565b92915050565b60008060408385031215610839576108386104e5565b5b600061084785828601610510565b92505060206108588582860161080d565b9150509250929050565b7f4e487b7100000000000000000000000000000000000000000000000000000000600052602260045260246000fd5b600060028204905060018216806108a957607f821691505b6020821081036108bc576108bb610862565b5b50919050565b60008190508160005260206000209050919050565b60006020601f8301049050919050565b600082821b905092915050565b6000600883026109247fffffffffffffffffffffffffffffffffffffffffffffffffffffffffffffffff826108e7565b61092e86836108e7565b95508019841693508086168417925050509392505050565b6000819050919050565b600061096b610966610961846104ef565b610946565b6104ef565b9050919050565b6000819050919050565b61098583610950565b61099961099182610972565b8484546108f4565b825550505050565b600090565b6109ae6109a1565b6109b981848461097c565b505050565b5b818110156109dd576109d26000826109a6565b6001810190506109bf565b5050565b601f821115610a22576109f3816108c2565b6109fc846108d7565b81016020851015610a0b578190505b610a1f610a17856108d7565b8301826109be565b50505b505050565b600082821c905092915050565b6000610a4560001984600802610a27565b1980831691505092915050565b6000610a5e8383610a34565b9150826002028217905092915050565b610a7782610552565b67ffffffffffffffff811115610a9057610a8f610654565b5b610a9a8254610891565b610aa58282856109e1565b600060209050601f831160018114610ad85760008415610ac6578287015190505b610ad08582610a52565b865550610b38565b601f198416610ae6866108c2565b60005b82811015610b0e57848901518255600182019150602085019450602081019050610ae9565b86831015610b2b5784890151610b27601f891682610a34565b8355505b6001600288020188555050505b505050505050565b7f4e487b7100000000000000000000000000000000000000000000000000000000600052601160045260246000fd5b6000610b7a826104ef565b9150610b85836104ef565b9250828203905081811115610b9d57610b9c610b40565b5b92915050565b60006040820190508181036000830152610bbd81856105a9565b9050610bcc60208301846105e2565b9392505050565b7f53747564656e7420646f6573206e6f7420657869737400000000000000000000600082015250565b6000610c0960168361055d565b9150610c1482610bd3565b602082019050919050565b60006020820190508181036000830152610c3881610bfc565b9050919050565b7f4e487b7100000000000000000000000000000000000000000000000000000000600052603260045260246000fd5b6000602082019050610c8360008301846105fd565b9291505056fea2646970667358221220ca4f90cde961173f95ba375e9da75d57b2214a8aee436e46e2deea6b09989acd64736f6c634300081c0033",
  "linkReferences": {},
  "deployedLinkReferences": {}
}